:020000040800F2
:10000000888900204D010008290700082107000801
:10001000250700087D020008C51B0008000000003D
:10002000000000000000000000000000FD150008B6
:10003000C1020008000000002B070008E9160008B4
:1000400067010008670100086701000867010008F0
:1000500067010008670100086701000867010008E0
:1000600067010008670100086701000867010008D0
:1000700067010008670100086701000867010008C0
:1000800067010008670100086701000867010008B0
:1000900067010008670100086701000867010008A0
:1000A0006701000867010008670100086701000890
:1000B0006701000867010008670100086701000880
:1000C0006701000867010008670100086701000870
:1000D0006701000867010008670100086701000860
:1000E0006701000867010008670100086701000850
:1000F0006701000867010008670100086701000840
:10010000670100086701000867010008670100082F
:10011000670100086701000867010008670100081F
:10012000670100086701000867010008670100080F
:10013000DFF80CD000F090F800480047C1890008B3
:10014000888900200138FDD17047000006488047AB
:1001500006480047FEE7FEE7FEE7FEE7FEE7FEE7AC
:10016000FEE7FEE7FEE7FEE705170008310100089D
:100170002DE9F05F0546002092469B4688460646DC
:10018000814640241BE0284641464746224600F06F
:1001900053F853465A46C01A914110D31146184697
:1001A000224600F03AF82D1A67EB01084F46224626
:1001B0000120002100F031F817EB00094E41201E0C
:1001C000A4F10104DFDC484631462A464346BDE837
:1001D000F09F40EA01039B0703D009E008C9121F02
:1001E00008C0042AFAD203E011F8013B00F8013BF1
:1001F000521EF9D27047D2B201E000F8012B491E1D
:10020000FBD270470022F6E710B513460A460446B3
:100210001946FFF7F0FF204610BD202A04DB203AE4
:1002200000FA02F1002070479140C2F1200320FA49
:1002300003F3194390407047202A04DB203A21FA47
:1002400002F00021704721FA02F3D040C2F12002EF
:100250009140084319467047064C074D06E0E06898
:1002600040F0010394E8070098471034AC42F6D3FD
:10027000FFF762FF149300083493000800BFFEE705
:1002800008B50121052000F097FA18208DF8030029
:100290004FF40070ADF8000003208DF802006946AD
:1002A000064800F00FF804208DF803000002ADF8B6
:1002B00000006946014800F005F808BD000801404B
:1002C000704700002DE9F05F05460C464FF000092D
:1002D000CA4600260027B046B3465948854211D089
:1002E000584885420ED0584885420BD05748854221
:1002F00008D05748854205D05648854202D0564816
:10030000854200D103E0B22154A008F039F8E0782A
:10031000A0B1E078042811D0E07828280ED0E07849
:1003200048280BD0E078142808D0E078102805D0B1
:10033000E0781C2802D0E078182800D103E0B3212F
:1003400046A008F01DF8002010B9208800B103E095
:10035000B42142A008F014F8E07800F00F09E0782A
:1003600000F0100080B1A078012805D0A078022804
:1003700002D0A078032800D103E0BB2137A007F00A
:10038000FFFFA07840EA0909207838B3D5F800804B
:1003900000261FE0012000FA06F7208800EA070A7D
:1003A000BA4516D1B7000F2000FA07FB28EA0B0860
:1003B00009FA07F040EA0808E078282803D101206C
:1003C000B040686105E0E078482802D10120B040E3
:1003D0002861761C082EDDD3C5F800802088FF2810
:1003E0002BDDD5F80480002623E006F1080001216A
:1003F00001FA00F7208800EA070ABA4518D1B700C9
:100400000F2000FA07FB28EA0B0809FA07F040EA78
:100410000808E078282803D106F1080081406961C6
:10042000E078482804D106F10800012181402961C3
:10043000761C082ED9D3C5F80480BDE8F09F0000D3
:1004400000080140000C0140001001400014014070
:1004500000180140001C0140002001402E2E5C4C81
:1004600069627261726965735C53544D333246310F
:1004700030785F5374645065726970685F44726964
:100480007665725C7372635C73746D33326631309F
:10049000785F6770696F2E630000000070B50446D6
:1004A0000D461348844211D0124884420ED012489F
:1004B00084420BD01148844208D01148844205D0B0
:1004C0001048844202D01048844200D104E040F237
:1004D00079110EA007F054FF002008B905B104E01F
:1004E0004FF4BD7109A007F04BFF656170BD0000BE
:1004F00000080140000C01400010014000140140C0
:1005000000180140001C0140002001402E2E5C4CD0
:1005100069627261726965735C53544D333246315E
:1005200030785F5374645065726970685F447269B3
:100530007665725C7372635C73746D3332663130EE
:10054000785F6770696F2E630000000070B5044625
:100550000D461348844211D0124884420ED01248EE
:1005600084420BD01148844208D01148844205D0FF
:100570001048844202D01048844200D104E040F286
:1005800069110EA007F0FCFE002008B905B104E0D7
:100590004FF4B57109A007F0F3FE256170BD0000AE
:1005A00000080140000C014000100140001401400F
:1005B00000180140001C0140002001402E2E5C4C20
:1005C00069627261726965735C53544D33324631AE
:1005D00030785F5374645065726970685F44726903
:1005E0007665725C7372635C73746D33326631303E
:1005F000785F6770696F2E63000000004FF6FF712F
:100600000180022181700421C170704770B50546D8
:100610000C4616462B48854211D02B4885420ED0F9
:100620002A4885420BD02A48854208D0294885426D
:1006300005D02948854202D02848854200D104E0EF
:1006400040F28D1126A007F09BFE012C25D0022C34
:1006500023D0042C21D0082C1FD0102C1DD0202CEE
:100660001BD0402C19D0802C17D0B4F5807F14D02B
:10067000B4F5007F11D0B4F5806F0ED0B4F5006FE3
:100680000BD0B4F5805F08D0B4F5005F05D0B4F5A9
:10069000804F02D0B4F5004F00D104E04FF4C77191
:1006A0000FA007F06DFE0EB1012E00D104E040F264
:1006B0008F110BA007F064FE0EB12C6100E06C619D
:1006C00070BD000000080140000C01400010014016
:1006D0000014014000180140001C014000200140AE
:1006E0002E2E5C4C69627261726965735C53544D65
:1006F0003332463130785F53746450657269706884
:100700005F4472697665725C7372635C73746D3397
:1007100032663130785F6770696F2E6300000000C9
:1007200000BFFEE700BFFEE77047704770B50446A4
:100730000D461048204008B904B104E040F2C3411E
:100740000DA007F01DFE0DB1012D00D104E040F217
:10075000C44109A007F014FE2DB1164800692043DA
:100760001449086104E013480069A0431149086175
:1007700070BD0000003601812E2E5C4C69627261F2
:10078000726965735C53544D3332463130785F5330
:1007900074645065726970685F4472697665725CF2
:1007A0007372635C73746D3332663130785F726379
:1007B000632E63000010024070B504460D461048D9
:1007C000204008B904B104E040F24A410DA007F00E
:1007D000D7FD0DB1012D00D104E040F24B4109A03D
:1007E00007F0CEFD2DB11648806920431449886179
:1007F00004E013488069A0431149886170BD00007E
:100800000200C0FF2E2E5C4C6962726172696573D2
:100810005C53544D3332463130785F5374645065C5
:10082000726970685F4472697665725C7372635C4A
:1008300073746D3332663130785F7263632E630098
:100840000010024070B504460D461048204008B91B
:1008500004B104E040F2A4410DA007F091FD0DB1F8
:10086000012D00D104E040F2A54109A007F088FD68
:100870002DB11648C06820431449C86004E01348ED
:10088000C068A0431149C86070BD00000200C0FFED
:100890002E2E5C4C69627261726965735C53544DB3
:1008A0003332463130785F537464506572697068D2
:1008B0005F4472697665725C7372635C73746D33E6
:1008C00032663130785F7263632E6300001002403D
:1008D00030B500210022002400232D4D6D6805F065
:1008E0000C0121B1042905D0082923D105E0294DA7
:1008F000056022E0274D05601FE0254D6D6805F479
:100900007012234D6D6805F48034022505EB924288
:100910001CB9214D554305600BE01D4D6D6805F474
:1009200000351DB11C4D5543056002E0194D55437E
:10093000056002E0174D056000BF00BF144D6D68F3
:1009400005F0F0010909154D6B5C0568DD40456057
:100950000F4D6D6805F4E061090A104D6B5C456848
:10096000DD4085600A4D6D6805F46051C90A0B4D84
:100970006B5C4568DD40C560054D6D6805F4404120
:10098000890B074D6B5CC568B5FBF3F5056130BDA0
:100990000010024000127A0000093D002C000020E7
:1009A0003C00002010B500F07DF910BD70B5FF25AA
:1009B000FF2000F049F90446FF2000F045F904F05B
:1009C0001F00052804D00B2810D00D2812D10FE0ED
:1009D0000525012000F028F9002000F025F900BFCE
:1009E000FF2000F031F9FF28FAD104E00B2502E0E6
:1009F0000D2500E000BF00BF284670BD00B585B0E2
:100A00000220FF2300220D21009001A800F08EFAA1
:100A1000DDE90101CDE90301012000F005F9FF2026
:100A200000F012F99DF80C0028B99DF80D0010B9DE
:100A3000002005B000BD0120FBE7000000B587B035
:100A40000020049000BF9DF81000401CC0B204902C
:100A50000020952302460146009002A800F066FAA5
:100A6000DDE90201CDE90501012000F0DDF8FF20FC
:100A700000F0EAF89DF81000642802DB012007B0BE
:100A800000BD9DF814000128DDD1052087234FF417
:100A9000D5720821009002A800F048FADDE90201B1
:100AA000CDE90501012000F0BFF8FF2000F0CCF8EF
:100AB0009DF8140000F0040004282CD100BF002091
:100AC000FF2302463721009002A800F02FFADDE94B
:100AD0000201CDE90501012000F0A6F8FF2000F099
:100AE000B3F80020FF2302462921009002A800F05D
:100AF0001DFADDE90201CDE90501012000F094F8BD
:100B0000FF2000F0A1F89DF814000128D7D00020A4
:100B10004449088083E09DF8140001287DD100BF7E
:100B20000020FF2302463721009002A800F0FEF9C2
:100B3000DDE90201CDE90501012000F075F8FF2093
:100B400000F082F80020FF234FF08042292100901E
:100B500002A800F0EBF9DDE90201CDE90501012071
:100B600000F062F8FF2000F06FF89DF814000128F3
:100B7000D6D09DF8140000F0040004282ED100BF48
:100B80000020FF2302463721009002A800F0CEF992
:100B9000DDE90201CDE90501012000F045F8FF2063
:100BA00000F052F89DF81400012801D0012066E7FA
:100BB0000020FF2302462921009002A800F0B6F988
:100BC000DDE90201CDE90501012000F02DF8FF204B
:100BD00000F03AF89DF814000128D1D00320FF233B
:100BE00000223A21009002A800F0A0F9DDE90201FC
:100BF000CDE90501012000F017F8FF2000F024F8EE
:100C00009DF8140010B1012039E706E09DF81500A9
:100C1000C0F380100349088001E001202FE7002085
:100C20002DE700001600002010B50446012C04D169
:100C300008210448FFF78AFC03E008210148FFF778
:100C40002DFC10BD0008014010B50446204600F000
:100C500087FA10BD2DE9F04105460E4617460024DF
:100C600000BF05E0285D00F07BFA3055601C84B2BF
:100C7000BC42F7DBBDE8F08110B5002400F04AF873
:100C800008210748FFF762FC00BF03E0FF20FFF7E1
:100C9000DBFF641C092CF9D9FFF7D0FE10BD000062
:100CA0000008014008B50021184800F075FA1748FF
:100CB00000F0BEFA00214FF48050FFF77DFD2020A8
:100CC000ADF8000004208DF8030069461048FFF7D6
:100CD000F9FA4020ADF8000069460D48FFF7F2FA36
:100CE0008020ADF8000069460948FFF7EBFA0820BC
:100CF000ADF8000069460648FFF7E4FA0420ADF8B5
:100D0000000069460248FFF7DDFA08BD00300140E7
:100D10000008014000B587B001210420FFF74CFD19
:100D20001C20ADF8180010208DF81B0003208DF852
:100D30001A0006A93248FFF7C5FA1C213048FFF710
:100D400005FC01210420FFF737FD01210803FFF70F
:100D500033FD2020ADF8180003208DF81A0018206C
:100D60008DF81B0006A92648FFF7ACFA8020ADF8E5
:100D7000180006A92248FFF7A5FA4020ADF8180090
:100D800004208DF81B0006A91D48FFF79BFA0820D8
:100D9000ADF8180010208DF81B0006A91848FFF7C1
:100DA00091FA0420ADF8180048208DF81B0006A920
:100DB0001348FFF787FA0020ADF804004FF4827063
:100DC000ADF806000020ADF808000220ADF80A00DA
:100DD0000120ADF80C004002ADF80E000020ADF887
:100DE0001000ADF812000720ADF8140001A9054865
:100DF00000F03CFB0121034800F0CEF907B000BD34
:100E000000080140003001402DE9FF5F88B09046A6
:100E10009946DDF858A04FF0000B01200790002004
:100E20000690FF2352461021009002A800F07EF8A1
:100E3000DDE90201CDE904010120FFF7F5FEFF2005
:100E4000FFF702FF9DF8100000B14EE0504607F09A
:100E5000CFFF0690069800B947E05146FF2206985A
:100E6000FFF7C9F93AE028480088012801D1524625
:100E700000E00122D317144618EB0B0649F10001DC
:100E80003046FFF775F901900020FF2300901121F3
:100E900002A8019A00F04AF8DDE90201CDE9040157
:100EA0009DF8100000B120E0FE2000F0BFF870B9FE
:100EB000089800EB0B0152460698FFF7CBFED3448F
:100EC000FF20FFF7C1FEFF20FFF7BEFE00E00CE0B1
:100ED0000120FFF7A9FEFF20FFF7B6FE1798411E7D
:100EE00017910028BFD1079000BF0120FFF79CFE9B
:100EF000FF20FFF7A9FE069810B1069807F056FAF2
:100F000007980CB0BDE8F09F1600002070B50825CA
:100F100000BFFF20FFF798FE0446681EC5B2FF2CF5
:100F200001D1002DF5D1204670BD00002DE9F04122
:100F300086B005460E4614461F46DDF830803A4915
:100F400003C9CDE9000146F040008DF81000200EE5
:100F50008DF81100200C8DF81200200A8DF8130076
:100F6000E0B28DF8140047F001008DF81500002064
:100F7000FFF75AFE062202A904A8FFF76BFEB8F19C
:100F8000060F46D2DFE808F00308212B452CFFF7B7
:100F9000BDFF8DF800003DE0FFF7B8FF8DF80000C1
:100FA000FF20FFF751FE8DF801000120FFF73CFE06
:100FB000012007F0B9F90020FFF736FE00BFFF203F
:100FC000FFF742FEFF28FAD124E0FFF79FFF8DF8DC
:100FD0000000FF20FFF738FE8DF801001AE000BF87
:100FE000FFF794FF8DF80000FF20FFF72DFE8DF82E
:100FF0000100FF20FFF728FE8DF80200FF20FFF719
:1010000023FE8DF80300FF20FFF71EFE8DF804007D
:1010100000E000BF00BF009828609DF80400287120
:1010200006B0BDE8F0810000F892000870B50646F1
:101030004FF6FF7400BFFF20FFF706FE0546601E57
:1010400084B2B54201D0002CF5D10CB9022070BD9C
:101050000020FCE72DE9FF5F86B0DDF8509000240A
:10106000012005904FF0000A0020FF234A4610217E
:10107000009001A8FFF75AFFDDE90101CDE9030166
:101080000120FFF7D1FDFF20FFF7DEFD9DF80C00EA
:1010900000B152E0484607F0ABFE8246BAF1000FBD
:1010A00000D14AE042E02D480088012801D14A469B
:1010B00000E00122D3171546DDE90801071941F1C7
:1010C00000013846FFF754F883460020FF235A46B4
:1010D0001821009001A8FFF729FFDDE90101CDE902
:1010E00003019DF80C0000B127E0FF20FFF7ACFDE5
:1010F000FF20FFF7A9FDFE20FFF7A6FD06990819BE
:101100004A465146FFF7A6FD4C44FF20FFF79CFDE1
:10111000FF20FFF799FDFFF749FC052800D00CE000
:101120000120FFF781FDFF20FFF78EFD1598411E7E
:1011300015910028B7D1059000BFBAF1000F02D079
:10114000504607F033F90120FFF76EFDFF20FFF74F
:101150007BFD05980AB0BDE8F09F00001600002056
:1011600010B5044600BF02210A4800F0B9F8002873
:10117000F9D02146074800F041F900BF0121054898
:1011800000F0AEF80028F9D0024800F0FFF8C0B235
:1011900010BD00000030014070B504460D461248F5
:1011A000844205D01148844202D01148844200D1C3
:1011B00004E04FF4D7710FA007F0E2F80DB1012D54
:1011C00000D104E040F2AF110AA007F0D9F825B130
:1011D000208840F04000208004E020884FF6BF7156
:1011E0000840208070BD0000003001400038004001
:1011F000003C00402E2E5C4C69627261726965731E
:101200005C53544D3332463130785F5374645065CB
:10121000726970685F4472697665725C7372635C50
:1012200073746D3332663130785F7370692E63008A
:1012300010B504461848844205D01848844202D0AC
:101240001748844200D103E07A2116A007F098F8ED
:101250001148844208D101218014FFF7F3FA0021DC
:10126000A014FFF7EFFA16E00C48844208D10121E0
:101270000014FFF75BFA00212014FFF757FA0AE089
:101280000748844207D10121C013FFF74FFA00211C
:10129000E013FFF74BFA10BD00300140003800406A
:1012A000003C00402E2E5C4C69627261726965736D
:1012B0005C53544D3332463130785F53746450651B
:1012C000726970685F4472697665725C7372635CA0
:1012D00073746D3332663130785F7370692E6300DA
:1012E00070B505460C4600261648854205D01648BE
:1012F000854202D01548854200D104E040F2023117
:1013000013A007F03DF8802C0DD0402C0BD0202CE2
:1013100009D0102C07D0082C05D0042C03D0022CA7
:1013200001D0012C00D104E040F2033108A007F005
:1013300027F82889204008B1012600E00026304621
:1013400070BD00000030014000380040003C00400B
:101350002E2E5C4C69627261726965735C53544DE8
:101360003332463130785F53746450657269706807
:101370005F4472697665725C7372635C73746D331B
:1013800032663130785F7370692E630010B50446A1
:101390000848844205D00848844202D00748844265
:1013A00000D104E040F2362105A006F0E9FFA08953
:1013B00010BD00000030014000380040003C0040FB
:1013C0002E2E5C4C69627261726965735C53544D78
:1013D0003332463130785F53746450657269706897
:1013E0005F4472697665725C7372635C73746D33AB
:1013F00032663130785F7370692E630070B50446D1
:101400000D460848844205D00748844202D0074868
:10141000844200D104E040F2262105A006F0B0FF8E
:10142000A58170BD0030014000380040003C004004
:101430002E2E5C4C69627261726965735C53544D07
:101440003332463130785F53746450657269706826
:101450005F4472697665725C7372635C73746D333A
:1014600032663130785F7370692E630070B505465F
:101470000C4600264F48854205D04F48854202D091
:101480004E48854200D103E0A3214DA006F078FF2D
:10149000208858B12088B0F5806F07D02088B0F53B
:1014A000004F03D02088B0F5404F00D103E0A621C3
:1014B00043A006F065FF6088B0F5827F01D06088A8
:1014C00000B903E0A7213EA006F05AFFA088B0F5BE
:1014D000006F01D0A08800B903E0A82138A006F071
:1014E0004FFFE08810B1E088022800D103E0A92175
:1014F00033A006F045FF208910B12089012800D1D2
:1015000003E0AA212EA006F03BFF6089B0F5007F22
:1015100001D0608900B903E0AB2129A006F030FFBB
:10152000A089A0B1A089082811D0A08910280ED0C8
:10153000A08918280BD0A089202808D0A0892828A5
:1015400005D0A089302802D0A089382800D103E036
:10155000AC211BA006F014FFE08910B1E0898028BF
:1015600000D103E0AD2116A006F00AFF208A012871
:1015700000DB03E0AE2112A006F002FF2E8806F485
:101580004156208861880843A1880843E1880843C0
:101590002189084361890843A1890843E1890843F7
:1015A00006432E80A88B4FF2FF710840A883208A43
:1015B000288270BD0030014000380040003C0040EF
:1015C0002E2E5C4C69627261726965735C53544D76
:1015D0003332463130785F53746450657269706895
:1015E0005F4472697665725C7372635C73746D33A9
:1015F00032663130785F7370692E6300704710B5C2
:1016000000F002F810BD00000CB500200190009021
:101610003348006840F480303149086000BF3048EA
:10162000006800F4003000900198401C0190009880
:1016300018B90198B0F5A06FF1D12948006800F4FD
:10164000003010B10120009001E0002000900098CF
:10165000012843D12348006840F010002149086068
:101660000846006820F0030008600846006840F063
:10167000020008601A4840681949486008464068F6
:1016800048600846406840F480604860084640680A
:1016900020F47C1048600846406840F4E810486038
:1016A0000846006840F08070086000BF0C48006881
:1016B00000F000700028F9D00948406820F00300CD
:1016C000074948600846406840F00200486000BF93
:1016D0000348406800F00C000828F9D10CBD000058
:1016E000001002400020024010B5054800680A3092
:1016F000034908600A2007F00BF907F0CBF810BD8A
:101700000000002010B51348006840F001001149A6
:10171000086008464068104908400E49486008467D
:1017200000680E4908400B4908600846006820F42C
:10173000802008600846406820F4FE0048604FF4AE
:101740001F008860FFF75BFF4FF0006004490860EE
:1017500010BD0000001002400000FFF8FFFFF6FE81
:1017600008ED00E070B504460D46154884420BD0E4
:101770001448844208D01448844205D01348844257
:1017800002D01348844200D104E04FF4B17111A09B
:1017900006F0F6FD0DB1012D00D104E040F2631119
:1017A0000CA006F0EDFD25B1A08940F40050A08109
:1017B00004E0A0894DF6FF710840A08170BD0000D3
:1017C000003801400044004000480040004C004008
:1017D000005000402E2E5C4C696272617269657324
:1017E0005C53544D3332463130785F5374645065E6
:1017F000726970685F4472697665725C7372635C6B
:1018000073746D3332663130785F75736172742E24
:101810006300000070B505460C4600262548854249
:101820000BD02548854208D02448854205D024485D
:10183000854202D02348854200D104E040F26E3157
:1018400021A006F09DFD012C13D0802C11D0402C3E
:101850000FD0202C0DD0102C0BD0B4F5807F08D0E9
:10186000B4F5007F05D0082C03D0042C01D0022C45
:1018700000D104E040F26F3113A006F081FDB4F511
:10188000007F0ED10B48854205D00B48854202D01F
:101890000A48854200D104E040F273310AA006F004
:1018A0006FFD2888204008B1012600E00026304660
:1018B00070BD000000380140004400400048004076
:1018C000004C0040005000402E2E5C4C696272615A
:1018D000726965735C53544D3332463130785F53CF
:1018E00074645065726970685F4472697665725C91
:1018F0007372635C73746D3332663130785F757305
:101900006172742E630000002DE9F04786B0054631
:101910000C460026B24600BFB14600276B48854200
:101920000BD06B48854208D06A48854205D06A488A
:10193000854202D06948854200D103E0B82168A001
:1019400006F01EFD206820B175492068884200D24B
:1019500003E0B92162A006F013FDA08818B1A088A9
:10196000B0F5805F00D103E0BA215DA006F008FD6C
:10197000E08858B1E088B0F5805F07D0E088B0F526
:10198000005F03D0E088B0F5405F00D103E0BB21E9
:1019900053A006F0F5FC208938B12089B0F5806F9E
:1019A00003D02089B0F5C06F00D103E0BC214CA06A
:1019B00006F0E6FC60894FF6F371084010B96089C3
:1019C00000B103E0BD2146A006F0DAFCA08958B1C1
:1019D000A089B0F5807F07D0A089B0F5007F03D043
:1019E000A089B0F5407F00D103E0BE213CA006F005
:1019F000C7FCA08968B13548854205D03448854286
:101A000002D03448854200D103E0C22134A006F060
:101A1000B7FC2F462E8A4CF6FF700640E08806433E
:101A20002E82AE894EF6F3100640A0882189084325
:101A3000618908430643AE81AE8A4FF6FF400640F7
:101A4000A0890643AE8201A8FEF742FF1F488742E5
:101A500002D1DDF810A001E0DDF80CA0A88900F4A7
:101A6000004040B10AEBCA0000EB0A1021684900AF
:101A7000B0FBF1F807E00AEBCA0000EB0A1021689E
:101A80008900B0FBF1F86420B8FBF0F006013009E2
:101A9000642101FB1089A88900F4004040B1322084
:101AA00000EBC900B0FBF1F000F00700064308E0CE
:101AB000322000EB09106421B0FBF1F000F00F00C0
:101AC00006432E8106B0BDE8F087000000380140D3
:101AD0000044004000480040004C004000500040DE
:101AE0002E2E5C4C69627261726965735C53544D51
:101AF0003332463130785F53746450657269706870
:101B00005F4472697665725C7372635C73746D3383
:101B100032663130785F75736172742E6300000035
:101B200021AA440070B504460D46114884420BD0EA
:101B30001048844208D01048844205D00F4884429F
:101B400002D00F48844200D104E040F253210DA09E
:101B500006F016FCB5F5007F00DA04E04FF41571CD
:101B600008A006F00DFCC5F30800A08070BD0000C1
:101B7000003801400044004000480040004C004054
:101B8000005000402E2E5C4C696272617269657370
:101B90005C53544D3332463130785F537464506532
:101BA000726970685F4472697665725C7372635CB7
:101BB00073746D3332663130785F75736172742E71
:101BC0006300000000BFFEE702E008C8121F08C162
:101BD000002AFAD170477047002001E001C1121FAE
:101BE000002AFBD170472DE9FF4F8FB0074688468A
:101BF0001C4600200890119800680390D7F86801EF
:101C0000401CC7F86801039840010590B8F1000F27
:101C100002D1786E002879D0796DB86A4843049073
:101C2000049818B9022013B0BDE8F08FDDE9041064
:101C3000B0FBF1F00790DDE90410B0FBF1F201FB1D
:101C400012000590B96A0598B0FBF1F00690B8F162
:101C5000000F23D0D8F85000D8B1D8F85410079806
:101C6000814216D8D8E91023D8E9161051405840BF
:101C700001430ED1D8F84810D8F86000884208D146
:101C8000D8F850000990D8F854600020C8F85000E7
:101C900007E0D8F834000990002602E0786F099038
:101CA000002617E00998022805D342F69800C1598A
:101CB0000998814201D80820B5E708AA3846099951
:101CC00004F0B4FE0A900A9808B10A98ABE70898A5
:101CD0000990761C07988642E4D3396D0998801ED6
:101CE0007A6D00FB0211069801EB000A0321012224
:101CF000B868CDE90121009052460023384605F02E
:101D000008FF0A900A9810B10A988CE707E0B96AB0
:101D10000598B0FBF1F201FB1200059022E0B96AD0
:101D20000598B0FBF1F0B96C00EB010A0321012228
:101D3000B868CDE90121009052460023384605F0ED
:101D4000E8FE0A900A9808B10A986CE7002009900A
:101D500006900790B86CAAEB0001BA6A059801FBDF
:101D600012000590B96805980D180020C4E910A06C
:101D70000598A0640020A0612071D4F800B00C90F8
:101D8000E87A0F287DD12878E5287AD0287800F0E5
:101D90001F00401E00EB800101EBC006287800F018
:101DA0001F000B90FF2E06D301200C90287800F026
:101DB0001F00A0610CE004F1040B06F10E0900BF46
:101DC000002021688855761C4E4501D2FF2EF7D998
:101DD00000BF287800F01F00401E0E900C9888BBB2
:101DE00001264FF0000939E00B2E01D01A2E00D148
:101DF00033E00D2E01D10C262FE0701C285C60B161
:101E0000701C285CFF2802D1A85DFF2805D00120A6
:101E10000C900B98A061D4F800B0A85D10B1A85D3B
:101E2000FF2800D119E00E9800EB800101EBC00003
:101E30004844FF2807D301200C900B98A061D4F8E8
:101E400000B00DE00DE0A95D22680D230E9803FBA4
:101E50000090115409F1010900BFB61C202EC3D314
:101E600000BFB96A05982030814251D8B8F1000FFF
:101E700001D1786E78B3786D401E0699884207D9F3
:101E800000E055E00AF1010A0698401C06902CE09B
:101E900008AA3846099904F0C9FD0A900A9808B1C1
:101EA0000A98C0E6089809900998022805D342F6D6
:101EB0009800C1590998814201D80820B3E60798D3
:101EC000401C079000200690396D0998801E7A6D9D
:101ED00000FB021A09E0FFE70AF1010AD7E9120143
:101EE0000844504501D808209DE603210122B86826
:101EF000CDE90121009052460023384605F009FE45
:101F00000A900A9808B10A988DE60020059002E030
:101F1000059820300590B96805980D180398401C65
:101F200003900E9800287FF454AF0120606101E017
:101F300001200C900C98012801D100206061002044
:101F40008BF800000D900026814627E0A85D00B9BF
:101F500026E0A85D2E2801D102200D90A85D202842
:101F600004D10D9808B901200D9016E0082E03D178
:101F70000D9808B901200D900D98012807D12E2247
:101F8000484609F101090BF8002002200D90A85DD8
:101F90000BF8090009F1010900BF761C0B2ED5D3FF
:101FA00000BF606940B19BF80000E52804D12168BA
:101FB000087000208BF800009BF8000070B92878AA
:101FC00020280BD14FF0000905E015F809000BF8A7
:101FD000090009F10109B9F10B0FF6D300200BF844
:101FE00009000B3515F8010B207715F8010B607708
:101FF0000C98E0B1607F00F00800C0B14FF000091C
:102000000EE01BF80900412808DB1BF809005A28DC
:1020100004DC1BF8090020300BF8090009F1010964
:10202000B9F10B0F03D81BF809000028E9D115F806
:10203000010BA077284604F0B9FC2062AD1C2846AD
:1020400004F0B4FC6062AD1C284604F0AFFCA06252
:10205000AD1C786E38B1284604F0A8FC6063A08EF1
:102060000004606301E000206063AD1C284604F0BA
:102070009DFCE062AD1C284604F098FC2063AD1C7A
:10208000284604F093FC616B08446063AD1C28464D
:1020900004F097FC0021C4E90E0100202065606572
:1020A000A165E16520660398E064119903980860D2
:1020B000B8F1000F0DD00998C8F850000798C8F87B
:1020C0005400D8E91001C8E91601D8F84800C8F84A
:1020D00060000020A7E52DE9F04F9DB006460C46B4
:1020E000D6F86C01401CC6F86C0120680078E52821
:1020F00007D12079E52804D1012018900020207113
:1021000001E000201890A06C0B90D4F84090306D46
:10211000484511D8306DA9EB0000716DB0FBF1F0AE
:10212000801C0A90316D0A98801E726D00FB0210AF
:10213000A9EB00000C9002E000200A900C90032113
:102140000122B068CDE901210090D4E910010246D6
:102150000B46CDE90401304605F0DBFC1B901B98D3
:1021600018B11B981DB0BDE8F08FB0681C90A16C31
:102170001C980F18089700200790A06C06906069C3
:1021800000287BD0002015900025139014901DE0AE
:1021900021681598085C2E2807D1159800B912E01F
:1021A00014951598401C13900DE021681598085C53
:1021B000202807D0082D05D221681598085C0DA9A4
:1021C00048556D1C00BF1598401C15902168159846
:1021D000085C0028DCD1A84605E020200DA901F804
:1021E000080008F10108B8F10B0FF6D3139860B39B
:1021F00021681398085C30B122681398411C139130
:10220000105C8DF83C0021681398085C30B122689E
:102210001398411C1391105C8DF83D0021681398B0
:10222000085C30B122681398411C1391105C8DF842
:102230003E00149D06E020210DAA14981154149814
:10224000401C149014980728F5D90D211598B0FB5F
:10225000F1F201FB120020B91598B0FBF1F01690D5
:1022600005E00D211598B0FBF1F0401C16900120FF
:1022700012904FF0000B0020179032E01CE20DA9E5
:102280001798085C202811D1206810F80B0000B9BD
:102290002AE0206810F80B002E2802D000201290AF
:1022A00022E0082017900BF1010B1AE0179808287C
:1022B00006D1206810F80B002E2801D10BF1010B7C
:1022C0000DA91798085C216811F80B10884202D0FC
:1022D0000020129008E01798401C17900BF1010B9A
:1022E00000BF17980B28CAD300BF139828B19DF8D8
:1022F0003C00202801D100201290206810F80B002B
:1023000008B1002012901298B0BBE06C1990199897
:1023100080B21990032D00D903257E2228466D1C1A
:102320000DA90A544FF0000B30E0BBF1000F04D1AF
:102330001998C0F303301A9013E0BBF1010F04D1D8
:102340001998C0F303201A900BE0BBF1020F04D1DF
:102350001998C0F303101A9003E0199800F00F00C9
:102360001A901A98092808D91A983730C2B2284604
:102370006D1C0DA90A5407E00BE01A983030C2B268
:1023800028466D1C0DA90A540BF1010BBBF1040F7B
:10239000CBD300208DF83F009DF83400E52804D110
:1023A000189810B98F208DF83400002510E00DA882
:1023B00010F805A0BAF1610F06DBBAF17A0F03DC61
:1023C000AAF1200000F0FF0A0DA800F805A06D1C7E
:1023D0000B2DECD32079D8B3002503E020200DA9E4
:1023E00048556D1C0B2DF9D30025A84611E0201D82
:1023F000405D2E2800D10FE0201D405D00B90BE0AC
:10240000201D10F805A00DA800F808A06D1C08F10B
:102410000108B8F1080FEAD300BF201D405DA0B14C
:102420006D1C4FF008080CE0201D405D00B90BE06A
:10243000201D10F805A00DA800F808A06D1C08F1DB
:102440000108B8F10B0FEFD300BF4FF0000812E006
:102450001BE00DA810F808A0BAF1610F06DBBAF175
:102460007A0F03DCAAF1200000F0FF0A0DA800F8A3
:1024700008A008F10108B8F10B0FEAD39DF8340069
:10248000E52802D18F208DF83400002005461190F8
:1024900009E01198C10141EA50000DA9495D0844C5
:1024A000C0B211906D1C0B2DF3D31698C0B240F042
:1024B00040003870B9E0002010909DF83400E52805
:1024C00000D138700F20F87200203873119878739B
:1024D0000020B876F87601251698401E00EB8001A2
:1024E00001EBC00821E00B2D01D01A2D00D11BE01B
:1024F0000D2D01D10C2517E0109828B110987855B2
:10250000691C1098785406E0206810F80800785587
:102510000021681C3954206810F8080008B9FF2011
:10252000109008F1010800BFAD1C202DDBD320372F
:102530000B9820300B90079820300790B16A0B98C9
:1025400081426DD842F27840805D60B1DDE90702DA
:102550000699CDE9001202904A460023304601F068
:1025600068F81B900BE0032101221C98CDE90121A2
:1025700000904A460023304605F065FC1B901B98EE
:1025800008B11B98EEE5306D48452AD8706D401EA5
:102590000C99884205D909F101090C98401C0C904E
:1025A00026E009AA30460A9904F040FA1B901B98CD
:1025B00008B11B98D6E509980A900A98022805D315
:1025C00042F6980081590A98814201D80820C9E54D
:1025D00000200C90316D0A98801E726D00FB02196C
:1025E00006E009F10109306D484501D80820B9E538
:1025F00003210122B068CDE9012100904A46002361
:10260000304605F086FA1B901B9808B11B98A9E587
:10261000B0681C9000200B901C9F089707900690B4
:102620001698401E169016983870169800287FF459
:1026300042AF207950B9002505E00DA810F805A09B
:1026400007F801AB6D1C0B2DF7D320E1002502E04C
:10265000202078556D1C0B2DFAD30025A8460FE0DD
:10266000201D405D2E2800D10DE0201D405D00B9E9
:1026700009E0201D405D07F808006D1C08F1010805
:10268000B8F1080FECD300BF201D405D90B16D1C68
:102690004FF008080AE0201D405D00B909E0201D48
:1026A000405D07F808006D1C08F10108B8F10B0F38
:1026B000F1D300BF0B37EAE0A069C8B3207E40F039
:1026C00040003978884233D14FF0000880E020681C
:1026D0000078E52800D1387020370B9820300B9017
:1026E000079820300790B16A0B9881426ED842F269
:1026F0007840805D60B1DDE907020699CDE90012FE
:1027000002904A460023304600F093FF1B900BE0F6
:10271000032101221C98CDE9012100904A460023A3
:10272000304605F090FB1B901B9810B11B9819E5E3
:1027300052E0306D48452AD8706D401E0C99884291
:1027400005D909F101090C98401C0C9026E009AA52
:1027500030460A9904F06AF91B901B9808B11B983F
:1027600000E509980A900A98022805D342F69800D5
:1027700081590A98814201D80820F3E400200C9086
:10278000316D0A98801E726D00FB021906E009F196
:102790000109306D484501D80820E3E403210122F6
:1027A000B068CDE9012100904A460023304605F08B
:1027B000B0F91B901B9808B11B98D3E4B0681C902B
:1027C00000200B901C9F08970790069008F10108C5
:1027D000A06940453FF67BAF4FF0000804E02020A1
:1027E00007F8080008F10108B8F10B0FF7D300252E
:1027F00002E02E2078556D1C2068405D2E28F8D010
:102800002068405D08B30025A8461AE02068405DB6
:102810002E2800D118E02068405D00B914E020683F
:1028200010F805A0BAF1610F06DBBAF17A0F03DCEC
:10283000AAF1200000F0FF0A07F808A06D1C08F1BB
:102840000108B8F1080FE1D300BF2068405DE8B18E
:102850006D1C4FF0080815E02068405D00B914E0D9
:10286000206810F805A0BAF1610F06DBBAF17A0F03
:1028700003DCAAF1200000F0FF0A07F808A06D1C95
:1028800008F10108B8F10B0FE6D300BF0B37207F2A
:1028900007F8010B607F07F8010BA07F07F8010B19
:1028A0003846216A04F089F8BF1C3846616A04F092
:1028B00084F8BF1C3846A16A04F07FF8BF1C706E14
:1028C00038B1606B000C1A9038461A9904F075F80C
:1028D00003E00021384604F070F8BF1C3846E16A76
:1028E00004F06BF8BF1C3846216B04F066F8BF1C7F
:1028F0003846616B04F061F8BF1C3846A16B04F0E8
:102900006DF807982030079042F27840805D90B1D2
:1029100042F27940805D00F0010060B1DDE907021C
:102920000699CDE9001202904A460023304600F095
:1029300080FE1B900BE0032101221C98CDE90121B0
:1029400000904A460023304605F07DFA1B901B9804
:1029500008B11B9806E496F8B00388B306F5107327
:10296000D4E91010D3E9102351405840014327D136
:102970004FF422708059A16C814221D14FF41D7017
:10298000616B815106F51072D4E90E10C2E90E1088
:10299000217F4FF4177081554FF41B70E16A81510C
:1029A000001D216B8151617F40F25D208155A17F27
:1029B000401C8155801C216A8151001D616A815132
:1029C0000020DFE52DE9F74F92B005461446D5F813
:1029D0007401401CC5F8740100200E900F906061D6
:1029E000206800782E2807D1206840782E2803D14F
:1029F0000C2015B0BDE8F08F0026002011909EE05D
:102A00002068805D412804DB2068805D5A2800DC56
:102A100094E02068805D302804DB2068805D3928E0
:102A200000DC8BE02068805D612806DB2068805D2B
:102A30007A2802DC012060617FE02068805D202828
:102A400002D10120606178E02068805D2E280AD1E3
:102A5000119828B91196002E6FD1012060616CE0A9
:102A60000120606169E02068805DE52802D10120D5
:102A7000606162E02068805D7F2800DD5EE02068A4
:102A8000805D7E283BD02068805D2D2837D020686F
:102A9000805D5F2833D02068805D7D282FD020683E
:102AA000805D7B282BD02068805D282827D0206877
:102AB000805D292823D02068805D60281FD0206891
:102AC000805D27281BD02068805D212817D02068D2
:102AD000805D232813D02068805D24280FD02068D3
:102AE000805D26280BD02068805D402807D02068B4
:102AF000805D5E2803D02068805D252800D11DE020
:102B00002068805D2B2813D02068805D2C280FD092
:102B10002068805D3B280BD02068805D3D2807D071
:102B20002068805D5B2803D02068805D5D2802D12D
:102B30000120606101E00C205BE700BF761C20688B
:102B4000805D00287FF45CAF119828B11198301A8D
:102B5000042801D9012060610C2E0FD8606968B982
:102B60004FF0010A1198092803D21198301A092848
:102B700015D3012060614FF0020A10E00D20B6FB72
:102B8000F0F100FB116028B90D20B6FBF0F000F168
:102B9000010A04E00D20B6FBF0F000F1020A1398E0
:102BA0000068007858B1DDF84C90D9F83870DDF83D
:102BB0004C900020C9F850000220069004E0AF6F4E
:102BC0004FF0000900200690049700BF234606AA94
:102BD00049462846FFF707F88046B8F1000F01D0B4
:102BE000404606E720680078E52801D1207910B139
:102BF00020680078F0BBBAF1010F14D92068007882
:102C000088B900206061E5202168087000202168F3
:102C1000487021462846FFF75EFA8046B8F1000F5B
:102C200001D04046E5E60498B84205D106980490E4
:102C3000206C0F90A06C0E9006990498081A401C06
:102C400050451DD300210F98C4E910010E98A064CF
:102C500000206077A077BB4800682062BA4800680F
:102C60006062B9480068A062BAF1010F03D1002088
:102C7000606102E003E0012060610020B9E6049792
:102C80000698401C06900698B8426ED3A86A401E6B
:102C900000EB4A10A96AB0FBF1F00390686D401E8A
:102CA00003990844696DB0FBF1F00A90B9F1000F87
:102CB00002D1686E002858D0E96F0A98814254D931
:102CC00000200990286C0B9000200890D5F880B067
:102CD0000A980790C2E00798401E079000BF0B9823
:102CE00008B90A2085E60DAA5946284603F09EFE3B
:102CF0008046B8F1000F01D040467AE60B98401E9E
:102D00000B900D9868B90BF10100C5F88000286C94
:102D1000801CD5F88010814202D30220C5F88000C3
:102D200008E00BF1010B286C801C584501D84FF0CE
:102D3000020BD4E700BFABF10200D5E9141200FB8F
:102D400002120592686D039003210122A868CDE963
:102D50000121009000232846059A04F0DAFE8046FF
:102D6000B8F1000F02D0404643E6E4E0A8681090B6
:102D7000002606E00021109801601098001D1090B8
:102D8000361DA86AB042F5D803210122A868CDE912
:102D90000121009000232846059A05F054F880464A
:102DA000B8F1000F01D0404623E60398012840D92E
:102DB000012002900398401E0021CDE900010598F2
:102DC000421C0B46284604F01FFD8046B8F1000F58
:102DD00001D040460DE60398401E039026E04035A2
:102DE000D5F87001401CC5F870010120A86490203E
:102DF000E86455F8380C2865039905980844686517
:102E00000120A8650320A86701202867E96F403DDD
:102E1000284688470020C5F8B000D5F88C0010B1CE
:102E2000D5F88C00E5E50398401E03900398002830
:102E3000D5D1099808B9CDF824B0089850B15A46B0
:102E40002846089903F07AFF8046B8F1000F01D0B8
:102E50004046CEE5CDF820B0D5F880B007980028E0
:102E60007FF439AF42F69C0042592846089903F096
:102E700065FF8046B8F1000F01D04046B9E528460D
:102E800004F025F8B9F1000F03D0D9F834000C9004
:102E900001E0686F0C900020089000261BE00DAA4E
:102EA00028460C9903F0C2FD8046761CB8F1000F4D
:102EB00001D040469DE50C98022806D3DDE90C01BF
:102EC000884202D0286CB04201D2032091E50C98D0
:102ED00008900D980C9042F6980041590C98814248
:102EE000DDD8E96F0A98081AE867686D0A994843BF
:102EF000A96A484307EB501720680078E52801D1FC
:102F0000207900B1049700211398C0E90E71686E12
:102F100018B1B9F1000F00D1AF672846DDE90812FA
:102F200003F00CFF8046B8F1000F01D0404660E589
:102F3000284603F0CCFF0698B842FFF447AE0A20BB
:102F400057E50000B0000020AC0000200A46002336
:102F5000137003785C2B02D003782F2B00D1401C18
:102F600000E0401C0378202BFBD000210DE003780B
:102F70005C2B02D003782F2B00D109E0FF2900D170
:102F800006E010F8013B5354491C0378002BEED1A6
:102F900000BF0023535401B1491E02E000235354E3
:102FA000491E535C202BF9D0037803B900207047E9
:102FB0002DE9F04FB1B004460F4690469B460020E5
:102FC0002A9004900397D4F87001401CC4F8700153
:102FD00004F66C000790BBF1000F03D00020DBF873
:102FE0000010087038785C2802D038782F2802D179
:102FF0004FF0000911E0D4F8B004007858B1702205
:1030000004F5966108A8FDF7E4F804F5A4600490BF
:103010000DF1200901E04FF0000994F8B0030028F9
:103020007ED0002538785C2802D038782F2828D127
:1030300015E0785D069004F56C70405D0090069890
:103040005C2801D12F20069000985C2801D12F2008
:10305000009000990698884200D005E06D1CFF2D75
:1030600002D2785D0028E4D100BF795D04F56C7070
:10307000405D814202D00020029072E00120029067
:103080006FE001200290049818B316E004F56C700C
:10309000405D06900498405D009006985C2801D140
:1030A0002F20069000985C2801D12F2000906D1CE5
:1030B00000990698884200D005E0FF2D03D20498BD
:1030C000405D0028E2D100BF0498405D08B10020B7
:1030D00002900298C8B304F56C70405D5C2807D07C
:1030E00004F56C70405D2F2802D00020029000E0B3
:1030F0006D1C00202C901BE02C98385C069004F589
:103100006C70405D009006985C2801D12F200690DD
:1031100000985C2801D12F2000900099069800E0CB
:103120007AE0884200D00BE06D1C2C98401C2C905B
:10313000FF2D05D22C98385C10B102980028DBD105
:1031400000BFFF2D02D9002002900AE0029840B192
:103150002C98395C04F56C70405D814201D00020F0
:1031600002900298D0B3D8F800000190702204F5C4
:1031700010714046FDF72DF80198C8F800004FF097
:10318000000A10E004F52C7010F80A10019800F8FD
:103190000A10019810F80A0018B9BAF1FF0F00D20E
:1031A00004E00AF1010ABAF1FF0FEBD900BFBBF14D
:1031B000000F22D0D4F8C801F8B1DBF80000249049
:1031C000702204F5E8715846FDF703F82498CBF80F
:1031D0000000D4F8D001259000260BE01BE02598D4
:1031E000815D249881552598805D10B9FF2E00D20D
:1031F00002E0761CFF2EF2D900BF3A9810B13A993E
:1032000001980860D4F8C401401CC4F8C40100202F
:1032100031B0BDE8F08F00BF002084F8B00300BFDC
:103220003A9808B13A98076038460799FFF78EFE3A
:103230000746B9F1000F65D00020C9F850002F9063
:10324000D9F834002B901BE02F98401C2F902AAA0D
:1032500020462B9903F0EAFB2D902D9808B12D986C
:10326000D6E72B98022807D3DDE92A10884203D03D
:10327000206C2F99884201D20320C9E72A982B900D
:1032800042F6980001592B988142DDD8616DA06A01
:10329000A0FB01234FF0000C2F98A2FB001E03FBA4
:1032A00000E002FB0C0020226346CDE90010084636
:1032B0000199FCF75DFFCDE92801DDE92801C9E9A5
:1032C0000E01BBF1000F21D0DBF80000249070222A
:1032D00049465846FCF77DFF2498CBF80000D9F802
:1032E0000000259000260AE02598815D24988155EC
:1032F0002598805D10B9FF2E00D202E0761CFF2ECB
:10330000F2D903E00021A06FCDE9280100202F9021
:103310002E9000BF43462FAA49462046FEF763FC85
:103320002D902F98401C2F902D9808B12D986FE765
:10333000D8F80000007800B98AE098F81C0000F086
:10334000080000B179E0D8F800000078E52803D142
:1033500098F8040000B970E007982690D8F80000AB
:10336000279000BF2798007806902698007805904F
:103370000698612806DB06987A2803DC0698203830
:10338000C0B206900598612806DB05987A2803DC10
:1033900005982038C0B20590DDE90510884200D0BC
:1033A00009E02698401C26902798401C27902798D3
:1033B00000780028D6D100BF2798007840B9269819
:1033C000017827980078814202D101202E9033E0C5
:1033D00098F8040080B30798269008F1040027901D
:1033E00000BF2798007806902698007805900598E9
:1033F000612806DB05987A2803DC05982038C0B2DE
:103400000590DDE90510884200D009E02698401CAF
:1034100026902798401C2790279800780028E0D114
:1034200000BF2798007838B9269801782798007847
:10343000814201D101202E9000BF0022DDE9283019
:103440002F99C91A824103D22E9800283FF462AF07
:1034500000BF2E9808B90420DAE698F81C0000F0A6
:10346000100068B37022414608A8FCF7B2FE0DF1C7
:1034700020090020C9F85000D9F83400F8B900201C
:10348000D9F800100870BBF1000F16D0DBF800006F
:103490002490702249465846FCF79BFE2498CBF8AE
:1034A0000000D9F800002590002604E02598815DF1
:1034B00024988155761CFF2EF8D94FF0000902E0C0
:1034C0000FB10420A4E6002F7FF4AAAE00250398D4
:1034D00000785C2812D0039800782F280ED004982A
:1034E00060B105E00498415D04F56C7041556D1CB8
:1034F000FF2D03D20498405D0028F3D10398007893
:103500005C280BD0039800782F2807D0FF2D05D218
:103510002F2228466D1C04F56C710A5400202C9053
:1035200009E02C990398415C04F56C7041556D1CC1
:103530002C98401C2C90FF2D04D82C990398405CAB
:103540000028EED1FF2D04D8002104F56C70415500
:1035500002E0002084F8B003B9F1000F09D0702216
:10356000494604F5E870FCF734FE0120C4F8C801B0
:1035700002E00020C4F8C8017022414604F5107032
:10358000FCF727FE04F52C70C4F840024FF0000A47
:1035900012E0D8F8000010F80A1004F52C7000F8BA
:1035A0000A10D8F8000010F80A0018B9BAF1FF0F95
:1035B00000D204E00AF1010ABAF1FF0FE9D900BF15
:1035C000002025E62DE9F04104468846164642F2E1
:1035D0009040005900F10C0742F28C400059B8426B
:1035E00002D20A20BDE8F08142F28840015942F23D
:1035F000904000590D180121284603F0DEF90C21F6
:10360000A81C03F0DAF94146281D03F0E7F931461A
:1036100005F1080003F0E2F9B9B242F2904001511D
:1036200042F284400059401C42F28441085100207B
:10363000D8E72DE9F05F044617469846DDE90AAB66
:103640000C9E42F290400059304400F1100942F2C1
:103650008C400059484502D20A20BDE8F09F0EB9BF
:103660000020FAE742F28840015942F290400059A6
:103670000D180221284603F0A0F906F11001A81C3C
:1036800003F09BF93A46434605F1080003F0C1F9FF
:103690005146281D03F0A2F942F288410A5942F22C
:1036A00090410959114401F1100032465946FCF786
:1036B00090FD1FFA89F142F29040015142F284409C
:1036C0000059401C42F2844108510020C5E72DE911
:1036D000F04F8BB0044642F288400059079042F206
:1036E000884000590C30069042F28840005924303E
:1036F00005900798001D03F059F909900998001FDB
:1037000009900598801C03F051F90A900598051D51
:1037100071E0284603F04AF980B20890A81C03F033
:1037200045F981460999894503D908200BB0BDE8C0
:10373000F08F0998A0EB090009900898012802D0A1
:10374000022851D114E004950498083003F039F9A7
:1037500002900498001D03F034F9019001462046C0
:10376000029A03F0EBFA06460EB13046DEE73DE082
:1037700003950398083003F039F907468846042179
:103780000122A068CDE9012100903A464346204637
:1037900004F0BFF906460EB13046C7E70398001D96
:1037A00003F00FF98246A9F1100B0AEB0B00E16858
:1037B000884201D90820B9E7A16801EB0A005A46FE
:1037C00005F11001FCF705FD03210122A068CDE9F8
:1037D000012100903A464346204604F034FB064659
:1037E0000EB13046A2E701E089209FE700BF0A98AA
:1037F000401E0A904D440A9800288AD10698807885
:1038000000F0010038B10121204600F034F80646EE
:103810000EB130468AE700200290D4E90E01012261
:103820000023CDE90001204603F0EEFF06460EB16D
:1038300030467BE7204603F04AFB002076E72DE97F
:10384000F04107460E46002409E0384603F0B9F877
:103850000546A8B200EB15400444361F3F1D042E58
:10386000F3D2A0B200EB1444A0B200EB1444E04346
:1038700080B2BDE8F0812DE9F34F87B00546002006
:1038800004904FF48070029042F2944005EB0009DE
:1038900042F28840405900F10C06089828B906F118
:1038A000080003F08EF8044604E006F10C0003F073
:1038B00088F8044606F1100003F083F80390022C08
:1038C00004D342F698004059A04203D8002009B022
:1038D000BDE8F08F06F1140003F073F8804681E034
:1038E0000594002700BF04AA2846059903F09EF816
:1038F0000690069808B10698E9E7049800B916E022
:1039000039467F1C059849F82100049805900498D1
:1039100002280CD342F6980040590499884206D9EF
:10392000DDE90301814202D002988742DBD300BF68
:103930000298874201D1DDF81080414606F114005B
:1039400003F04CF8089828B9214606F1080003F066
:1039500045F804E0214606F10C0003F03FF8002191
:10396000304603F02AF818213046FFF768FF01902F
:103970003046019903F021F80021284600F05EFC52
:103980004FB3781E59F82010284603F06BFD0090C5
:10399000BA461AE0AAF1010A59F82A10284603F09B
:1039A00061FD834600998B4504D0284603F08FFAC9
:1039B000CDF800B059F82A100022284603F0BEF9CD
:1039C0000690069808B1069881E7BAF1000FE1D198
:1039D000E86F3844E867284603F079FA444500D197
:1039E00008E04446022C05D342F698004059A04214
:1039F0003FF676AF00BF002069E72DE9F8430446A3
:103A0000002000904FF412500059E16F814202D221
:103A10000A20BDE8F8834FF41250075902254FF0F1
:103A200000091AE0002600BFA9196A46204602F0E4
:103A3000FDFF8046B8F1000F01D04046E9E700984D
:103A400000B102E0761CBE42EED300BFBE4202D3FC
:103A50004FF0010906E0A819451C206CC01B801C12
:103A6000A842DFD200BFB9F1000F01D10A20D0E790
:103A700000260CE0A819421CA919204603F05EF9A3
:103A80008046B8F1000F01D04046C2E7761C781E90
:103A9000B042EFD842F69C000259E819411E204678
:103AA00003F04CF98046B8F1000F01D04046B0E772
:103AB000204603F00CFA42F28841095901F17400E2
:103AC000294602F08BFF0720C4F888009020C4F834
:103AD0008C0042F28840005944F8900F0120A06009
:103AE000A062E16A903C20468847D4F88C0008B177
:103AF00001208EE742F27C400551E06FC01BE06779
:103B0000002086E72DE9F74F8EB004468B46A06A69
:103B10000390606D039900FB01FABAF1000F03D125
:103B2000022011B0BDE8F08F0AF6FF30B0FBFAF8C2
:103B30004FF4125040F8048003991098884201D243
:103B40009120EEE7A06E002862D001200290D4E917
:103B50000E0101220023CDE90001204603F054FEAE
:103B6000D4F8700CA0600020E067099000264CE0BB
:103B7000606C30440690A06D801B059061690598CB
:103B8000814201D260690590002044F8880F90209E
:103B9000606054F8800CA0600698E0600598206191
:103BA00002202063616B883C20468847D4F88C0053
:103BB00008B10320B5E7A06A0599484304900020A6
:103BC00008901BE0A1680898085807900898001D05
:103BD0000890079840B9E06F401CE067D4F8800077
:103BE00010B90998C4F880000998401C0990206C0D
:103BF000801C0999884201D8A66D03E004990898B1
:103C00008842DFD300BF60690644A06DB042AFD8E0
:103C100042F2884040F804B008FB0AF0109988424C
:103C200005D208FB0AF042F28C41085107E00399E3
:103C30001098B0FBF1F0484342F28C410851052046
:103C400044F8880F90206060C4F808B0012020611B
:103C50002063616B883C20468847D4F88C0008B10B
:103C600001205EE70BF1740002F0ABFE0546002D6B
:103C70007CD0022D79D342F698000059A84274D91D
:103C800000261CE0A9190DAA204602F0CFFE074627
:103C90000FB1384645E7A8F10100B04206D9A8198E
:103CA000401C0D99884209D000250AE042F69C008C
:103CB00000590D99884201D0002502E0761C464546
:103CC000E0D300BFEDB342F27C400551204600F046
:103CD00023F907460FB1384623E742F288400059DE
:103CE0000B9042F2884000590C300A900B9802F079
:103CF00068FE2C49884239D10C210B98FFF79FFDB3
:103D00008146B9F1000F31D10B98001D02F04EFE33
:103D10000C9042F290410C98085118210A98FFF734
:103D20008EFD8146B9F1000F20D10C98302815D9AD
:103D30000C9AA2F1240142F28842125902F12400A5
:103D400001E013E011E0FFF77AFD8146B9F1000FC1
:103D500008D12046FFF7BBFC074603E0204600F0F1
:103D6000FAF8074617B13846DBE6002535B9204694
:103D7000FFF743FE07460FB13846D2E6204600F073
:103D800023F907460FB13846CBE6012142F27840CD
:103D900001550021801C015342F69400015100207E
:103DA000BFE60000524C54462DE9FF4F81B0064655
:103DB0008A460020009042F2844087591FB996201D
:103DC00005B0BDE8F08F42F290408059A0F1240880
:103DD00042F28840805900F1280422E0204602F097
:103DE000E5FD1FFA80FBA01C02F0E0FD05464545FD
:103DF00001D90820E4E7A8EB0508049883450ED113
:103E0000A14609F1040002F0DCFD504507D109F19B
:103E1000080002F0D6FD03990860012000907F1E83
:103E20002C44002FDAD10098012801D09620C7E752
:103E30000020C5E72DE9F04F87B081461746984628
:103E400042F2844050F809000690069818B9002004
:103E500007B0BDE8F08F42F2904050F809002438D6
:103E6000039042F2884050F8090000F128064EE025
:103E7000304602F09BFD80B20290B01C02F096FD2D
:103E8000824603998A4501D90820E1E70398A0EB0F
:103E90000A0003900298022835D101960198083053
:103EA00002F0A4FD04460D46E01B75EB08012AD381
:103EB000DDE912013A1848EB0100A11A75EB000088
:103EC00021D2E11BD9F82800A1FB00011099084478
:103ED0000490019800F1040002F073FD8346AAF1FA
:103EE0001000059005990BEB0100D9F828108842C5
:103EF00001D90820ACE7049901EB0B0006F1100191
:103F0000059AFCF766F90698401E069056440698F6
:103F10000028ADD100BF9BE7FEB5044642F28C40BD
:103F20000059A16AB0FBF1F742F27C400059801EB3
:103F3000D4E9141200FB0215042142F28840005912
:103F40002A460023CDE901710090204603F0E1FDEF
:103F500006463046FEBD2DE9F0410446002142F2FE
:103F60007940015542F28840005900F10C07B878B9
:103F700000F0010010B90020BDE8F08142F2884055
:103F8000005900F10C0700212046FFF774FC05469C
:103F90000DB12846F0E7381D02F013FD064607F183
:103FA0000C0002F00EFD804646B1424631462046E6
:103FB00002F0C4FE05460DB12846DDE7204602F0BA
:103FC00086FF0020D8E700002DE9F047064642F2C0
:103FD00088408559805900F10C0442F2884080598C
:103FE00000F124072949284602F0F8FC2421281D65
:103FF00002F0E3FC0021A81D02F0DFFC0120287282
:1040000000206872002105F10A0002F0D6FC0C21A4
:104010002846FFF714FC81464946A81D02F0CDFC56
:104020004FF6FF71204602F0C8FC0020A070E0703F
:104030000021201D02F0D2FC002104F1080002F052
:10404000CDFC002104F10C0002F0C8FC002104F1B9
:10405000100002F0C3FC002104F1140002F0BEFCC9
:104060004FF6FF71384602F0A8FC4FF6FF71B81CFE
:1040700002F0A3FC002142F279408155304600F065
:10408000DDF880464046BDE8F0870000524C5446BB
:104090002DE9F84F054616461F46DDE90A894FF01F
:1040A000010B42F28840405900F10C0400212046E7
:1040B00002F083FC3146201D02F090FC394604F1E9
:1040C000080002F08BFC414604F10C0002F086FC73
:1040D000494604F1100002F081FC002104F11400B3
:1040E00002F07CFC84F802B00020E0701821204629
:1040F000FFF7A5FB00902046009902F05EFC00212E
:10410000284600F09BF882465046BDE8F88F2DE91E
:10411000F047044642F27840005D10B90020BDE847
:10412000F08742F27A40005B401E81B242F27A4050
:104130000153005B08B10020F1E7002142F2794011
:10414000015542F288400659005900F124094846B9
:1041500002F033FC42F28440015909F1020002F0FE
:104160002CFC42F290421259A2F1240142F2884200
:10417000125902F12400FFF762FB8246514648467D
:1041800002F01BFC42F290400159301D02F015FC78
:104190000021B01D02F011FC0C213046FFF74FFB4F
:1041A00082465146B01D02F008FC0127D4F8288051
:1041B0000AE03946204600F041F805460DB1284690
:1041C000ADE77F1CA06A804442F290400059404510
:1041D000EFD80021204600F031F805460DB1284601
:1041E0009DE72046FFF773FA05460DB1284696E78E
:1041F0002046FFF7E9FE0546284690E7014642F2D1
:104200007840405C012817D142F27A40405A58B9B0
:10421000282242F290404250002242F28440425012
:10422000012242F27940425442F27A40405A401C04
:1042300082B242F27A40425200207047FEB50446F4
:104240000D4642F27C400059801ED4E9141200FB56
:1042500002160421012242F288400059A36A03FB9E
:104260000500CDE90121009071190A46002320467E
:1042700003F0E9FD07460FB13846FEBD00200121DD
:10428000029032460346CDE90010204603F0BCFA06
:1042900007463846F1E7000070B504462449206817
:1042A000884201D0072070BD256ED5F82C01401C36
:1042B000C5F82C01606EA04203D10020C5F8C800EB
:1042C0000CE0D4E919108866D4E919014866D5F8DC
:1042D000C800A04202D1606EC5F8C800D5F8CC0075
:1042E000401EC5F8CC001248801E2060A06801283E
:1042F0001BD1207BC8B10F4801689C2001510E489A
:104300000168A02001510C4801689820015104F176
:104310007000D4E91212C0E90E1201462846FDF7DA
:10432000DAFE06460EB13046BDE70020BBE70000CE
:10433000454C4946B0000020AC0000202DE9F0417A
:10434000BCB004468846D4F83001401CC4F83001A3
:10435000002746460DE030785C2802D030782F28C0
:1043600001D1002704E03078202800D107B17F1C5C
:10437000761C30780028EED10FB1FF2F03D90C2026
:104380003CB0BDE8F08104F66C101E9004F66C2081
:10439000029000208DF87C008DF80C005E492068AA
:1043A000884201D01120EBE72046FFF727FFD4F821
:1043B000A800B0B142F27840005D01280FD142F26E
:1043C0007A40005B401E81B242F27A400153005BAA
:1043D00028B92046FFF7BFFD2046FFF7F5FD232053
:1043E000CEE73AA802AB1EAA414600902046FEF74F
:1043F000DFFD0546B5B942F27840005D01280FD1D6
:1044000042F27A40005B401E81B242F27A40015390
:10441000005B28B92046FFF79EFD2046FFF7D4FD3C
:104420000B20ADE71E993A98FEF790FDB0B142F22D
:104430007840005D01280FD142F27A40005B401EB7
:1044400081B242F27A400153005B28B92046FFF75F
:1044500082FD2046FFF7B8FD0D2091E71EAA02A9B4
:104460002046FEF7AFFA0546B5B142F27840005D4E
:1044700001280FD142F27A40005B401E81B242F225
:104480007A400153005B28B92046FFF764FD2046BF
:10449000FFF79AFD284673E71E993A98FEF756FDF6
:1044A0001E48006829901E4800682A9020208DF838
:1044B000940000212C912D9100202B901E980078C3
:1044C0002E2805D19DF8940040F002008DF894004C
:1044D0001EA92046FDF7FFFD0546B5B142F2784022
:1044E000005D01280FD142F27A40005B401E81B28C
:1044F00042F27A400153005B28B92046FFF72BFDBA
:104500002046FFF761FD28463AE72046FFF7FFFD0A
:104510000546284634E700004944454DB0000020D8
:10452000AC0000202DE9FF4F8FB081460C460020E3
:104530000B90F749D9F80000884203D0112013B03E
:10454000BDE8F08FD9F83801401CC9F838010020C7
:10455000C4F8E401D9F8640020B1EE4803901820B3
:10456000019004E04FF6F870039018200190129823
:10457000022804D1002012900120029001E00020C6
:10458000029004F1E0002067002174200155002012
:10459000034604F17002009048461199FEF708FDA9
:1045A0000D900D9808B10D98C9E78C20005D019918
:1045B000084008B10520C2E71298012835D1D9F882
:1045C000A80008B12320BAE78C20005D00F00100AC
:1045D00008B10620B3E7D9F8CC000A90D9F8C80092
:1045E00008901FE0089800F17001D1E9100104F172
:1045F0007002D2E910325840514008430CD108985B
:10460000D0F8B810B8200059814205D108988068C8
:10461000012801D1062092E70898406E08900A9878
:10462000401E0A900A980028DCD1D4F8A4B004F106
:104630007000D0E90E56D9F85410D9F8280000FBC4
:1046400001FA00202062BAF1000F01D1022076E7C2
:1046500000200790069001200C90A0610298B0B154
:1046600015EB0A0246F10000571E60F100015246A8
:1046700000233846FBF77CFD00230246A2FB0A0715
:1046800001FB0A7102FB0311CDE9040177E04CE064
:104690000698401C06900BAA5946484602F0C6F9F7
:1046A0000D900D9808B10D9849E70B98834504D0FB
:1046B000D9F840100698814201D203203FE70BF160
:1046C00001000B99884205D10C9828B1A069401CC3
:1046D000A06101E000200C90CDF81CB0DDF82CB0FA
:1046E0000020BAEB0501B04104D2B5EB0A0566F132
:1046F00000061AE0206AC0B9079820620698401E9A
:10470000606385EA0A0030430FD1BBF1020F0CD37E
:1047100042F6980050F80900584506D9C4F820B070
:10472000606B401C606300252E46BBF1020F05D371
:1047300042F6980050F809005845A9D8D9F8541005
:10474000D9F82800A0FB013200270698A3FB001C23
:1047500002FB00C003FB0700CDE9041004F1700068
:10476000D0E90E23DDE90410891A984105D3069893
:1047700028B10B990398814201D20820DFE66648F0
:10478000206004F1E0006060C4F860901298A060BE
:104790000020207306982061A420005960610798CA
:1047A000E06104F17000C16B806BC4E91201DDE9C6
:1047B0000401C4E914010020C4F8E0011298B8B95A
:1047C00060692062002060636069801ED9F854101F
:1047D000A0FB0130D9F85010591840F10000C4E98D
:1047E0000A100020A06320630021216461646EE050
:1047F00085EA0A00304333D1D9F828C06F1E66F12C
:104800000001624600233846FBF7B2FC0023022772
:10481000216AB1EB070C63EB0301D9F85420ACFB20
:10482000027E01FB02E10CFB0311D9F85020BA18FB
:10483000594180184B41C4E90A03D9F828C06F1EBA
:1048400066F10001624600233846FBF791FCA06345
:10485000D4E91201C4E91001D9F82800206336E038
:10486000D9F828703A46002328463146FBF780FCE9
:1048700000234FF0020C216AB1EB0C0C63EB030830
:10488000D9F85420ACFB021E08FB02E20CFB032CFF
:104890008846D9F8502018EB02024CEB030180182F
:1048A0004B41C4E90A03D9F828703A460023284648
:1048B0003146FBF75DFCA063D4E91201C4E91001A5
:1048C000D9F82800B5FBF0F100FB11502063D4E9C2
:1048D0001201C4E91601D9F8C80070B1D9F8C800AE
:1048E000806E0990D9F8C8008466099844660998D2
:1048F000A066D9F8C800606603E0C9F8C8406466DD
:10490000A466D9F8CC00401CC9F8CC00002016E6FB
:104910004944454DF8FFFF0F454C49462DE9F74FF7
:104920009AB08146924600200A900990089006901D
:1049300005900490FD49D9F80000884203D0072073
:104940001DB0BDE8F08FD9F86040D4F85401401C88
:10495000C4F85401D9E9102012EB0A0240F100001A
:104960000021D2F1FF32814101D20A20E8E742F66C
:104970009C0000590790D4F8A80008B12320DFE775
:10498000D9F80800012801D00620D9E72046FFF712
:1049900035FC616DA06A00FB01FBBBF1000F16D175
:1049A00042F27840005D01280FD142F27A40005B6C
:1049B000401E81B242F27A400153005B28B9204682
:1049C000FFF7C9FA2046FFF7FFFA0220B8E70020F8
:1049D000159042F27840005D00287DD0D9E912326E
:1049E000D9E9101059405040014302D100200590F0
:1049F00072E0D9E91623D9E910105140584001431B
:104A000002D10020059067E0A76AD9E910013A4673
:104A10000023CDE90201FBF7ABFB07468846D4F83B
:104A200028C0D9E9102012EB0A0240F10000521E02
:104A300060F10000CDE9022062460023DDE90201B9
:104A4000FBF796FB474088EA010857EA08070FD1B1
:104A5000D9E91070D9E9121217EB0A0340F10000EE
:104A60000F461146FA1A814102D30020059033E027
:104A7000D9E91031D9E91420D21A60EB0100B2EB68
:104A80000A0270F100000BD2D9F83410D9F81000E6
:104A9000401A0590D9F82000099001200A901BE0E7
:104AA000D9E9102012EB0A0240F1000012EB0B03CF
:104AB00040F100005F1E60F100015A4600233846B5
:104AC000FBF756FBD9F83410401A0590D9F82000AE
:104AD00009904FF000000A90D9E91037D9E9141075
:104AE000CA1A60EB0700B2EB0A0270F1000002D3B1
:104AF000059800286FD042F27840005D00286BD006
:104B000042F27940005D40F0020142F279400155E5
:104B1000D9E9102012EB0A0540F10006059800289B
:104B200072D0D9F81410099881426ED0D9F81810B3
:104B3000D9F8340088420AD20998401E0690D9F864
:104B4000340000FB0BF02D1A66F100065DE0D9F889
:104B50001400139029E0B5EB0B0566F1000610AACE
:104B60002046139901F062FF19901998B0B142F2F2
:104B70007840005D01280FD142F27A40005B401E70
:104B800081B242F27A400153005B28B92046FFF718
:104B9000E2F92046FFF718FA1998D1E6109909981A
:104BA000814200D10AE0109813901398022805D38F
:104BB00042F69800015913988142CCD800BF13984F
:104BC00002280AD342F6980001591398814204D969
:104BD0001398069019E091E287E042F27840005D78
:104BE00001280FD142F27A40005B401E81B242F2AE
:104BF0007A400153005B28B92046FFF7ACF9204604
:104C0000FFF7E2F904209BE66BE00020BBEB050117
:104C1000B04102D3099808903DE00A98D8BB0998A2
:104C20001390022010902AE00020BBEB0501B04158
:104C300000D32DE0B5EB0B0566F1000610AA204667
:104C4000139901F0F3FE19901998B0B142F278402F
:104C5000005D01280FD142F27A40005B401E81B214
:104C600042F27A400153005B28B92046FFF773F9FE
:104C70002046FFF7A9F9199862E610981390139847
:104C8000022805D342F69800015913988142CBD8E7
:104C900000BF109808900A98F0B907AA2046089912
:104CA00001F0C4FE19901998F8B142F27840005D05
:104CB00001280FD142F27A40005B401E81B242F2DD
:104CC0007A400153005B28B92046FFF744F920469B
:104CD000FFF77AF9199833E642F69C0000590790DD
:104CE00003E042F69C0000590790D9E91032D9E957
:104CF0001410C91A60EB0200B1EB0A0170F1000058
:104D000016D2D9E9100CD9E91421131A61EB0C0160
:104D1000ABF1010050440022C71A62EB01015A4670
:104D200000233846FBF724FA0F9003E0454C494630
:104D300000200F9005990F980844E16F884216D91A
:104D400042F27840005D01280FD142F27A40005BC8
:104D5000401E81B242F27A400153005B28B92046DE
:104D6000FFF7F9F82046FFF72FF90A20E8E5D9F810
:104D700010100F980844C9F81000D9E914100F9AC0
:104D8000ABFB02321746CA1878410021D2F1FF323C
:104D9000814105D24FF0FF310020C9E9141008E02D
:104DA000D9E914200F99ABFB0131D2184841C9E968
:104DB000142005990F9808440F90E16F0F98081A76
:104DC000E067206C0E90059828B10120C9F8180002
:104DD0000698149002E0D9F81C001490D4F88000D2
:104DE00011900EE10F98401E0F9000BF0E98B0B9C1
:104DF00042F27840005D01280FD142F27A40005B18
:104E0000401E81B242F27A400153005B28B920462D
:104E1000FFF7A1F82046FFF7D7F80A2090E510AA7F
:104E20002046119901F002FE19901998B0B142F292
:104E30007840005D01280FD142F27A40005B401EAD
:104E400081B242F27A400153005B28B92046FFF755
:104E500082F82046FFF7B8F8199871E50E98401EC1
:104E60000E90109868B91198401CC4F88000206C0E
:104E7000801CD4F88010814202D30220C4F8800044
:104E80000AE01198401C1190206C801C11998842F6
:104E900001D802201190A9E700BF1598E0BB119836
:104EA000159042F27840005DB0B3099880B942F69F
:104EB0009C00005942F69C010959CDE90010D9F82F
:104EC00020202046159B0499FFF7E2F819900AE08C
:104ED00007990998CDE900012046159B069A049987
:104EE000FFF7D6F819901998B0B142F27840005DFA
:104EF00001280FD142F27A40005B401E81B242F29B
:104F00007A400153005B28B92046FFF724F8204679
:104F1000FFF75AF8199813E5FFE71498E8B3D9F8A2
:104F20001C101498814205D02046119A149901F062
:104F300005FF19901998B0B142F27840005D012840
:104F40000FD142F27A40005B401E81B242F27A40B9
:104F50000153005B28B92046FEF7FDFF2046FFF70E
:104F600033F81998ECE4D9F83810606D401E81428E
:104F700042D3D9F83000A16A88423DD31198C9F8CC
:104F80002000D9F83400401CC9F834000020C9F8CA
:104F900038001198801E616D00E00BE0A0FB01302D
:104FA000216D591840F10000C9E90A100020C9F824
:104FB000300021E01198C9F814001198C9F82000B8
:104FC0000020C9F834001198801E616DA0FB0130EB
:104FD000216D591840F10000C9E90A10D9F81C00E8
:104FE00030B90020C9F83000C9F84000C9F84400C1
:104FF000A421119841F8090011981490D4F8800068
:1050000011900F9800287FF4EDAE42F27840005DD9
:1050100030B12046079A149901F090FE199007E0EC
:1050200042F69C0002592046149901F087FE19901F
:105030001998B0B142F27840005D01280FD142F2D8
:105040007A40005B401E81B242F27A400153005B1D
:1050500028B92046FEF77FFF2046FEF7B5FF1998D6
:105060006EE4D9F81C0080B3069830B12046159A3A
:10507000069901F063FE19900EE042F27840005D5F
:1050800018B1059840B9159830B1D9F81C102046D0
:10509000159A01F053FE19901998B0B142F2784078
:1050A000005D01280FD142F27A40005B401E81B2C0
:1050B00042F27A400153005B28B92046FEF74BFFCD
:1050C0002046FEF781FF19983AE4FFE7204601F0F9
:1050D000FEFE42F27840005D88B142F27940005D08
:1050E00000F0FD0142F27940015542F69C00005962
:1050F0000799884206D11498C9F81C0002E0149858
:10510000C9F81C00D9F83000A16A88420ED3D9E949
:105110000A20521C40F10000C9E90A20D9F83800E1
:10512000401CC9F838000020C9F830001B981690C0
:10513000002655460598E0B31598C9F82000159843
:10514000801E616DA0FB0121206D131841F100014B
:10515000D9F83800181841F10001C9E90A01002006
:1051600018905FE004210122A068CDE901210090A0
:10517000226D0998801E636D00FB03221898111898
:105180000A460023204602F0C4FC19901998C0B1C9
:1051900042F27840005D012811D142F27A40005B72
:1051A000401E81B242F27A400153005B38B920467A
:1051B00000E03CE0FEF7CFFE2046FEF705FF199821
:1051C00004E404210122A068CDE901210090226DB0
:1051D000D9F82000801E636D00FB03221898111877
:1051E0000A460023204602F02EFE19901998B0B10D
:1051F00042F27840005D01280FD142F27A40005B14
:10520000401E81B242F27A400153005B28B9204629
:10521000FEF7A1FE2046FEF7D7FE1998BDE41898C8
:10522000401C1890D9F83810189881429AD8E2E1B9
:10523000D9F8300020B9A06A281A76F100007DD292
:10524000059890B3D9F820101598814215D1042102
:105250000122A068CDE901210090226D0998801EED
:10526000636D00FB0320D9F8382081180A4600231B
:10527000204602F04EFC199033E00A98B0B90421A0
:105280000122A068CDE901210090226D0898801EBE
:10529000636D00FB0320D9F8382081180A460023EB
:1052A000204602F036FC19901BE00DE0042101229B
:1052B000A068CDE901210090D9E90A733A46204659
:1052C00002F027FC19900CE004210122A068CDE92E
:1052D00001210090D9E90A733A46204602F019FCF0
:1052E00019901998B0B142F27840005D01280FD1B1
:1052F00042F27A40005B401E81B242F27A40015392
:10530000005B28B92046FEF726FE2046FEF75CFE2D
:10531000199842E4A06AD9F83010401A17901798EB
:10532000281A76F1000000D21795A068D9F830202D
:105330008118DDE9160202F0C1FE00E034E004212C
:105340000122A068CDE901210090D9E90A733A460B
:10535000204602F078FD19901998B0B142F27840D9
:10536000005D01280FD142F27A40005B401E81B2FD
:1053700042F27A400153005B28B92046FEF7EBFD6C
:105380002046FEF721FE199807E4D9F83010179847
:105390000844C9F8300017982D1A66F10006DDE9B7
:1053A000160108441690ADE0A76A3A460023284645
:1053B0003146FAF7DDFE0D90D9F8200013901290D7
:1053C000606DD9F83810401A189037E012AA2046BC
:1053D000139901F02BFB1990199840B912980228E3
:1053E00005D342F698000059129988421AD242F227
:1053F0007840005D01280FD142F27A40005B401EE8
:1054000081B242F27A400153005B28B92046FEF790
:10541000A2FD2046FEF7D8FD199808B119982BE493
:10542000082029E4DDE91210401C814200D009E087
:1054300012981390616D1898084418900D99189857
:105440008842C3D300BF0D991898884201D218989A
:105450000D9004220D9916988DE80700D9E90A737A
:105460003A46204602F0EFFC19901998B0B142F28A
:105470007840005D01280FD142F27A40005B401E67
:1054800081B242F27A400153005B28B92046FEF710
:1054900062FD2046FEF798FD19981CE4D9E90A73CD
:1054A0000D98411E791843F10000C9E90A10D9F896
:1054B00038100D98401E0844616DB0FBF1F0D9F82A
:1054C00034100844C9F83400D9F838100D98401E3B
:1054D0000844616DB0FBF1F201FB1200C9F838001D
:1054E000A06AC9F830001398C9F82000A06A0D9985
:1054F00048432D1A66F10006A26A16990D9802FB20
:1055000000101690D9F83000A16A884273D30021A8
:1055100085EA0100714008430BD1D9E9101011EB65
:105520000A0340F10000D9E914219A1A884100D3F6
:1055300068E0D9F83800401CC9F83800D9F83800BC
:10554000616D88424DD312AA2046D9F8201001F08F
:105550006DFA1990199840B91298022805D342F6AD
:1055600098000059129988421AD242F27840005DA0
:1055700001280FD142F27A40005B401E81B242F214
:105580007A400153005B28B92046FEF7E4FC204630
:10559000FEF71AFD199808B119983FE408203DE478
:1055A0001298C9F82000D9F83400401CC9F834001A
:1055B00000211298821E61EB01070023606DA2FB9F
:1055C000001C07FB00C002FB03071A460B46206DB8
:1055D000181847EB0201C9E90A010020C9F8380090
:1055E00006E0D9E90A10491C40F10000C9E90A1097
:1055F0000020C9F83000002185EA0100714008430D
:105600007FF416AE00BF0598E8B30A98D8BBD9F866
:10561000300010B9D9F83800A8B3D9F8300018B95B
:10562000D9F83800189003E0D9F83800401C1890D9
:105630005FE004210122A068CDE901210090226DE4
:105640000898801E636D00FB0322189811180A4603
:105650000023204602F05DFA19901998C0B142F279
:105660007840005D012811D142F27A40005B401E73
:1056700081B242F27A400153005B38B92046FEF70E
:105680006AFC204600E038E0FEF79EFC199842E4F0
:1056900004210122A068CDE901210090226DD9F8F2
:1056A0002000801E636D00FB0322189811180A4623
:1056B0000023204602F0C7FB19901998B0B142F2BE
:1056C0007840005D01280FD142F27A40005B401E15
:1056D00081B242F27A400153005B28B92046FEF7BE
:1056E0003AFC2046FEF770FC199814E41898401C08
:1056F0001890616D189881429BD8D9E9102012EB5F
:105700000A0240F10000C9E9102009F17000D9E94E
:105710001212C0E90E12D9E91031D9E91220D21AB9
:10572000884178D2D9E91001C9E91201D4F8CC0036
:105730000C90D4F8C8000B906AE00B98484561D0F3
:105740000B987030D0E9101009F17003D3E91023E1
:1057500051405840014355D10B98D0F8B810B820AB
:1057600050F8090081424DD1D9E910120B98C0E9D7
:105770001212A42050F809100B98C0F8A41009F1D7
:105780007000D0E90E120B987030C0E90E1209F1CA
:105790007000D0E910210B987030C0E91021B820BA
:1057A00050F809100B98C0F8B810D9F81C100B98D5
:1057B000C161D9E914020B99C1E914020B9800697F
:1057C00000BBD9F810100B980161D9F814100B9890
:1057D000016200210B984163D9F81400801E616DAD
:1057E000A0FB0130216D591840F100000B9AC2E96D
:1057F0000A1000210B9881630B98016300200B9A1B
:10580000106450640B98406E0B900C98401E0C90E6
:105810000C98002891D1012089F80C0000200290FA
:10582000D4E90E0101220023CDE90001204601F058
:10583000EBFF274801689C2040F8091025480168C3
:10584000A02040F8091042F27840005D28B109F12B
:105850007000D9E91221C0E90E2109F1700120463A
:10586000FCF739FC19901998B0B142F27840005D0C
:1058700001280FD142F27A40005B401E81B242F211
:105880007A400153005B28B92046FEF764FB2046AE
:10589000FEF79AFB199817E42046FEF738FC19909A
:1058A000199808B119980FE4D9E91023D9E916100D
:1058B000891A984103D2D9E91001C9E91601D9F82A
:1058C000E40118B14846D9F8E4118847002077E48C
:1058D000B0000020AC00002070B50446D4F8905011
:1058E00005F10B0001F062F8A062A06A08B902207D
:1058F00070BD05F1180001F059F8E06205F11A00D9
:1059000001F054F8206305F1130001F04FF8002175
:10591000C4E90E010023D4E90E1059405840014358
:1059200006D105F1200001F04CF80021C4E90E0178
:105930000023D4E90E1059405840014301D1022000
:10594000D6E705F10E0001F031F86064606C08B92B
:105950000220CDE7687B6065606D08B90220C7E76B
:1059600005F1160001F022F8A065A06D20B905F13F
:10597000240001F026F8A065A06D08B90220B7E761
:10598000287CE065E06D08B90120B1E705F11C0055
:1059900001F017F8206705F1110001F007F8A06782
:1059A00005F12C0001F00DF860670020A0E7000071
:1059B000FEB50446D4F85C01401CC4F85C011A49E9
:1059C0002068884201D01120FEBD204601F07FFAF8
:1059D000204601F0D4FC00250CE0002105EB450237
:1059E00004F5E56040F8221005EB450200EB82006B
:1059F00041606D1C102DF0D3002504E0002104F55A
:105A0000FD6041556D1C802DF8D301200290D4E932
:105A10000E0101220023CDE90001204601F0F4FE31
:105A200006463046D0E700004944454D2DE9FF4F7A
:105A30008BB00546189FFC492868884203D0112086
:105A40000FB0BDE8F08FD5F8CC0008B10620F7E71D
:105A50002846FFF7ADFF002038604FF480700490B7
:105A6000A96A686D00FB01FB032002900298C04305
:105A700002900C9800F10309029809EA00094C46CB
:105A800009F17009C4F800900498484400F1030932
:105A9000029809EA0009CA4609F17009CAF800909B
:105AA0000498484400F10309029809EA0009C8462D
:105AB00009F1F00900260C98A9EB00010D9881422C
:105AC00001D99120BCE70C98A9EB00010D98401A70
:105AD0000D90CDF80C900121286C01EBD0010D98B0
