:020000040800F2
:1000000088160020DD0000080D0300080903000821
:1000100000000000000000000000000000000000E0
:10002000000000000000000000000000F5050008CE
:10003000000000000000000089030008D10600084D
:100040000D0100080D0100080D0100080D01000858
:100050000D0100080D0100080D0100080D01000848
:100060000D0100080D0100080D0100080D01000838
:100070000D0100080D0100080D0100080D01000828
:100080000D0100080D0100080D0100080D01000818
:100090000D0100080D0100080D0100080D01000808
:1000A0000D0100080D0100080D0100080D010008F8
:1000B0000D0100080D0100080D0100080D010008E8
:1000C0000348854600F05EF800480047B10A000882
:1000D000881600200138FDD1704700000C4880F3DD
:1000E00008880C480168090E0B4A914205D10B485B
:1000F0000B4901600B480C4901600C4880470C48D3
:100100000047FEE7FEE7FEE7FEE7FEE7FEE700004A
:1001100088160020040000001F0000001810024094
:10012000010000000000014000000000D5060008AA
:10013000C100000830B50B460146002020220124F2
:1001400009E00D46D5409D4205D31D469540491B0B
:100150002546954040191546521E002DF1DC30BD54
:1001600003460B439B0703D009E008C9121F08C0D0
:10017000042AFAD203E00B780370401C491C521E7B
:10018000F9D27047064C0125064E05E0E36807CC1E
:100190002B430C3C98471034B442F7D3FFF794FF3D
:1001A0009C0F0008BC0F00081CB5184CA16809681A
:1001B000E268126811430846012100F0E7F8A368DD
:1001C0001A7B5989586800F06BF8E3681A7B5989E3
:1001D000586800F065F802216846017103214171F9
:1001E000002181710121C171A06800890090A1687E
:1001F0004868694600F00CF8E06800890090E16802
:100200004868694600F004F81CBD00002800002082
:10021000F0B50A4600210023002400BF3DE001257F
:100220008D402B4615681D402C469C4234D11579D3
:10023000012D02D01579022D16D185684F000326B5
:10024000BE40B543856055794E00B540866835435C
:100250008560858801268E40B5438580858896799E
:100260008E40B6B23543858005684F000326BE40F8
:10027000B543056015794E00B54006683543056005
:10028000C5684F000326BE40B543C560D5794E0012
:10029000B540C6683543C560491C1029BFD3F0BDC1
:1002A000F0B5002300244D07EE0E1546B5402B4651
:1002B000CD10AE0005462035AD594E07F70E0F267E
:1002C000BE40B543CE10B60007462037BD51CD1015
:1002D000AE003D46AD591D432C46CD10AD003E4607
:1002E0007451F0BD04490160002101710121417187
:1002F00000218171C1717047FFFF0000002A01D009
:10030000816100E00185704700BFFEE77047000093
:1003100010B5002819DA1A4A03071B0F083B9B087F
:100320009B00D2588307DC0EFF23A3409A438B0720
:100330001B0E8407E40EA3401A43114B0407240F3D
:10034000083CA408A4001A5118E00E4A03231B021B
:10035000D21883089B00D2588307DC0EFF23A340EA
:100360009A438B071B0E8407E40EA3401A43054BE8
:10037000032424021B198408A4001A5110BD000094
:100380001CED00E000E100E070470000002905D00E
:10039000054A52690243044B5A6104E0024A526919
:1003A0008243014B5A61704700100240FEB504467B
:1003B000002500260020029001900090002786482A
:1003C00040680C2108400546002D06D0042D07D0BA
:1003D000082D08D00C2D2CD128E0804820602BE07F
:1003E0007E48206028E07C4840680F21890408404E
:1003F0000646794840680321C90308400290B00CC2
:10040000861C0298002803D17548374647430BE005
:100410007148C06A0007000F401C01906F480199A5
:10042000FFF788FE70430746276005E06D482060AF
:1004300002E06A48206000BF00BF67484068F021C2
:10044000084005462D096848405D009020680099E5
:10045000C8406060604840680721090208400546BE
:100460002D0A6148405D009061680098C140A1601C
:100470005948006BFF2101310840884202D05B4897
:10048000E0600DE05448406801218903084088423B
:1004900003D0A0684008E06002E0A0688008E06047
:1004A0004D48006B40210840402802D05048206150
:1004B00002E00120C00320614748006B1021084082
:1004C000102802D04548606101E020686061424820
:1004D000006B8007800F002802D1A068A06119E09E
:1004E0003D48006B8007800F012802D12068A06181
:1004F00010E03948006B8007800F022802D180038A
:10050000A06107E03448006B8007800F032801D109
:100510003248A0613048006B0321090408400028DC
:1005200002D1A068E06120E02B48006B03210904A0
:10053000084001210904884202D12068E06114E0EA
:100540002548006B03210904084001214904884221
:1005500002D18010E06108E01F48006B032109040C
:100560000840884201D11D48E0611B48006B03210F
:1005700089040840002802D1A068206220E01648C3
:10058000006B03218904084001218904884202D1BB
:100590002068206214E01048006B032189040840A1
:1005A0000121C904884202D10011206208E00A48F2
:1005B000006B032189040840884201D1074820626A
:1005C0000548006B80210840802802D00548606201
:1005D00000E06762FEBD00000010024000127A00D9
:1005E00000093D00006CDC0254000020809FD50013
:1005F00012800000704700000CB5002001900090B0
:10060000314800680121090408432F49086000BFF0
:100610002D48006801214904084000900198401CC1
:1006200001900098002804D105210903019888420F
:10063000EED125480068012149040840002802D075
:100640000120009001E0002000900098012839D19D
:1006500011201E4908601C4840681B494860084634
:1006600040684860084640687F21C90388431649AE
:10067000486008464068112109040843124948604F
:10068000084600680121090608430F49086000BFB9
:100690000D4800680121490608400028F8D00A48A2
:1006A0004068800880000849486008464068022188
:1006B00008430549486000BF034840680C210840D2
:1006C0000828F9D10CBD00000010024000200240B3
:1006D0007047000010B51B48006801210843194904
:1006E00008600846406818490840164948600846AE
:1006F000006816490840134908600846006801214F
:10070000890488430F490860084640683F2109046E
:1007100088430C4948600846C06A00090001C86265
:100720000846006BFF215431884306490863084698
:10073000406B40084000486300208860FFF75CFF82
:1007400010BD0000001002400CB8FF08FFFFF6FECD
:10075000002904D0026801231A43026003E0026802
:10076000520852000260704702460020D3690B40D5
:10077000002B01D0012000E000207047F0B58BB0C5
:1007800004460D46002700200A90002620684008F5
:10079000400020606668032109033046884306460E
:1007A000A8680643666026682D480640E9686868C0
:1007B00008432969084306432660A6680321090205
:1007C00030468843064668690643A6606846FFF7D8
:1007D000EDFD2448844202D106980A900DE022489B
:1007E000844202D107980A9007E02048844202D14F
:1007F00008980A9001E002980A9020680121C90334
:10080000084000280CD029680A9A5000FFF792FC93
:10081000074629680A9A5000FFF78CFC0E4609E04B
:1008200029680A98FFF786FC074629680A98FFF7A7
:1008300081FC0E4628684008B04200D87F1C206822
:100840000121C9030840002806D03807460F384662
:100850000749084030430746A7810BB0F0BD0000B0
:10086000F3E9FFFF00380140004400400048004029
:10087000F0FF0000CA05D20D0285704702E008C8EB
:10088000121F08C1002AFAD170477047002001E00A
:1008900001C1121F002AFBD170470000F8B50446C1
:1008A00000BF094800684100401885087D21C90043
:1008B0002846FFF73FFC604307460321FFF73AFC59
:1008C0000646FFF707FCF8BD4000002070B504465F
:1008D0000D46206900280ED1002D06D0207D6075C0
:1008E000204600F01FF825610BE000202061204623
:1008F00000F008F805E0002D02D1204600F002F8D3
:10090000256170BD10B504460020C043A061607D24
:10091000002803D1204600F0BAF802E0204600F09B
:10092000A5F810BD10B50446607D002803D120460F
:1009300000F09CF802E0204600F0A9F80249E068C7
:1009400009684018A06110BD04000020F8B50446F5
:100950000D4616461F4625600120B040A080A771B5
:100960000698E0710798A0600898E0600020206178
:1009700001202075207D60750020C043A06100200B
:10098000E061204600F018F8204600F001F8F8BDBC
:1009900001460848026804E08A4201D101207047FC
:1009A000D269002AF8D103480068C8610148016093
:1009B0000020F4E7000000207CB504466846FFF7FD
:1009C00091FC0921C9062068884202D101256D04E5
:1009D0001EE021492068884201D1050218E01F4924
:1009E0002068884201D1050212E01D492068884232
:1009F00002D101252D050BE01A492068884201D15A
:100A0000450205E018492068884201D10125AD055D
:100A100001212846FFF7BAFCA08800900021684613
:100A200041710121017100218171E079012802D118
:100A30006946C87108E0E079022802D16946C871A8
:100A400002E000206946C87169462068FFF7E0FBB4
:100A5000204600F00BF87CBD000400480008004868
:100A6000000C0048001000480014004870B504460F
:100A700001202075A079002801D1012000E000208C
:100A80000546A1882A462068FFF738FC70BD70B57E
:100A9000044600202075A079002801D0012000E044
:100AA00000200546A1882A462068FFF727FC70BD74
:100AB0000EB5FFF70FFEFFF777FB7D21C90201207E
:100AC00000F068F800BF23A000F0B2F800BF7D205E
:100AD000C000FFF7E3FE00BF1FA000F0A9F800BFB1
:100AE000FF20F53041000022134600920191029050
:100AF0000D221A491A48FFF729FF0021C943184857
:100B0000FFF7E4FE642117480068FFF713FB044673
:100B1000601E1549884201D901200CE0601E13496E
:100B200048610321081FFFF7F3FB00200F4988618C
:100B3000072008610020002801D000BFFEE707E081
:100B40006420FFF7ABFE00BF094800F071F800BF5A
:100B5000F6E7000031732D002D31730000080048C6
:100B60006400002040000020FFFFFF0000E000E0E4
:100B7000380F000870B504460D4600BF802120469E
:100B8000FFF7F2FD0028F9D029462046FFF772FE54
:100B900070BD000030B587B004460D46601E800071
:100BA0001E4908581E490860022C13D3052C11D881
:100BB00000BF1C49C969621E92001B4B9A58114321
:100BC000184AD1611146C969621E92009A581140B3
:100BD000084611E000BF13498969621E9200124B5A
:100BE0009A5811430F4A916111468969621E920019
:100BF0009A581140084600BF18220C4901A8FFF777
:100C0000AFFA019501A906480068FFF7B7FD012179
:100C100003480068FFF79CFD07B030BDDC0E0008FC
:100C20003C00002000100240FC0E0008200F0008CD
:100C30000FB408B503A800900099029800F006F8D8
:100C40000020009001B008BC04B01847F3B58BB089
:100C500006461AE1002400E0641C305D252802D01D
:100C6000305D0028F8D12146304600F01DF93619D4
:100C700030782528EDD1761C00252020029000BF79
:100C80003178761C382932D014DC33292AD008DC9C
:100C9000252973D0302922D0312921D032296ED193
:100CA0001FE034291FD035291ED036291DD0372901
:100CB000F5D11BE0692937D008DC392918D058292B
:100CC00076D0632924D06429E9D12CE0702970D032
:100CD00073293ED075295CD07829E0D167E000BF48
:100CE00000BF00BF00BF00BF00BF00BF00BF00BF0C
:100CF00030462038C07F302802D1002D00D102902C
:100D00000A20454330462038C07F30384519B7E7C0
:100D10000C9800680A900C98001D0C9001210AA8FC
:100D200000F0C2F8B0E000BF0C9800680A900C9880
:100D3000001D0C9000270A98002805DA0A98404206
:100D40000A900120089001E0002008900A200990F4
:100D50003BE00C98006807900C98001D0C90002454
:100D600000E0641C0798005D0028FAD1214607982E
:100D700000F09AF8A5420BD92D1B05E07AE07EE041
:100D8000012145A000F090F828466D1E0028F7D1FB
:100D90007AE00C9800680A900C98001D0C900027CF
:100DA0000A200990002008900FE001E001E000BF58
:100DB00000BF0C9800680A900C98001D0C9000274A
:100DC000102009900020089000BF012402E009983B
:100DD00044436D1E099860430A99884207D80999CF
:100DE000614308460999FFF7A5F9A042EFD008989A
:100DF000002800D06D1E0898002809D002983028DD
:100E000006D12D2238467F1C03A90A5400200890E1
:100E1000012D0BD9102D09D26D1E05E039467F1C1E
:100E200003AA029850546D1E002DF7D1089800288F
:100E300004D02D2238467F1C03A90A5413E0214612
:100E40000A98FFF777F901900999FFF773F91348AA
:100E50000068425C38467F1C03A90A542046099961
:100E6000FFF768F90446002CE9D1394603A800F0E1
:100E70001BF809E0701E012100F016F804E00521BE
:100E800007A000F011F800BF00BF3078002800D0A4
:100E9000E0E60DB0F0BD0000200000001C0F0008CF
:100EA0004552524F5200000070B505460E460024D0
:100EB0000DE0285D0A2804D10D2107480068FFF7DE
:100EC00059FE295D04480068FFF754FE641CB442D3
:100ED000EFD3204670BD00003C00002000380140E8
:100EE0000044004000480040004C004000500040DA
:100EF0000014014000180140001C014000400000A7
:100F000000000200000004000000080000001000C3
:100F1000200000004000000080000000880F000852
:100F200000000000000000000000000000000000C1
:100F30000C000000000000002D2052656C6F616401
:100F40002056616C75652069732074686520706136
:100F500072616D6574657220746F206265207061C6
:100F60007373656420666F72205379735469636B81
:100F70005F436F6E66696728292066756E637469C2
:100F80006F6E200A000000003031323334353637BE
:100F9000383961626364656600000000BC0F0008B8
:100FA00000000020640000007C08000820100008F9
:100FB00064000020241600008C08000800000000D7
:100FC00000000000000002000000004800020900CC
:100FD00001000000000002000000004800040A00B8
:100FE00001000000000000000000000008000020D8
:100FF000180000200000000000000000006CDC026F
:1010000000000000000000000102030406070809B8
:10101000000000000102030401020304060708099E
:04000005080000C12E
:00000001FF
